:100000000C9462000C948A000C948A000C948A0070
:100010000C948A000C948A000C948A000C948A0038
:100020000C948A000C948A000C948A000C948A0028
:100030000C948A000C948A000C948A000C948A0018
:100040000C94B8020C948A000C948A000C948A00D8
:100050000C948A000C948A000C948A000C948A00F8
:100060000C948A000C948A000000000023002600F3
:10007000290000000008000201000003040700003E
:1000800000000000000000000000250028002B00F8
:1000900000000000240027002A00040404040404D3
:1000A0000404020202020202030303030303010227
:1000B00004081020408001020408102001020408F6
:1000C0001020940311241FBECFEFD8E0DEBFCDBFB8
:1000D00011E0A0E0B1E0E4E7F7E002C005900D9286
:1000E000A832B107D9F721E0A8E2B1E001C01D9222
:1000F000AC34B207E1F710E0C2E6D0E004C02197CB
:10010000FE010E94B203C136D107C9F70E94020363
:100110000C94B8030C94000090E0FC01E255FF4FF2
:10012000249186569F4FFC018491882399F090E09A
:10013000880F991FFC01E057FF4FA591B491FC0176
:10014000EA57FF4F859194918FB7F894EC91E22B89
:10015000EC938FBF0895AF92BF92CF92DF92EF9250
:10016000FF920F931F93CF93DF936C017B018B0161
:10017000040F151FEB015E01AE18BF08C017D107B1
:1001800059F06991D601ED91FC910190F081E02D3B
:10019000C6010995892B79F7C501DF91CF911F9190
:1001A0000F91FF90EF90DF90CF90BF90AF900895A8
:1001B000833081F028F4813099F08230A9F00895DD
:1001C0008730A9F08830C9F08430B1F48091800084
:1001D0008F7D03C0809180008F7780938000089589
:1001E00084B58F7784BD089584B58F7DFBCF8091D2
:1001F000B0008F778093B00008958091B0008F7D1C
:10020000F9CFCF93DF93E4E7F0E08491E0EBF0E007
:10021000D491ECE9F0E0C491CC23A1F081110E94CB
:10022000D800EC2FF0E0EE0FFF1FE859FF4FA5912B
:10023000B491EC91ED2381E090E009F480E0DF914E
:10024000CF91089580E090E0FACF1F93CF93DF9392
:10025000282F30E0F901EE58FF4F8491F901E25563
:10026000FF4FD491F901E656FF4FC491CC23A9F07A
:10027000162F81110E94D800EC2FF0E0EE0FFF1F27
:10028000EA57FF4FA591B4918FB7F894EC911111F3
:1002900008C0D095DE23DC938FBFDF91CF911F91F3
:1002A0000895DE2BF8CF089590E080E00895FC01DA
:1002B00001900020E9F73197AF01481B590BBC01B1
:1002C00084E391E00C94AB00CF93DF93EC0160E00A
:1002D0008E810E94250161E08E810E94250160E0EF
:1002E0008E810E9425018BE891E00197F1F7DF9163
:1002F000CF910895CF92DF92EF92FF920F931F93C9
:10030000CF93DF936C017C0187E0E80EF11CD0E015
:10031000C0E0062F10E0B8010C2E02C0759567955D
:100320000A94E2F76170F70181917F010E94250133
:100330002196C430D10579F7C601DF91CF911F9185
:100340000F91FF90EF90DF90CF900C946401CF92CB
:10035000DF92EF92FF920F931F93CF93DF93EC0105
:10036000F62E642F8C810E9425018D818F3F19F01C
:1003700060E00E9425010F2D10E08F8584FF25C0CD
:100380006E0187E0C80ED11CF12CE12CB8010E2CB7
:1003900002C0759567950A94E2F76170F601819144
:1003A0006F010E942501FFEFEF1AFF0A88E0E816AF
:1003B000F10461F7CE01DF91CF911F910F91FF9072
:1003C000EF90DF90CF900C946401B80184E07595B4
:1003D00067958A95E1F7CE010E947A016F2DCE01D3
:1003E000DF91CF911F910F91FF90EF90DF90CF9011
:1003F0000C947A0140E0682F84E391E00C94A7010B
:1004000081E00E94FA018BE39FE10197F1F70895E3
:10041000CF93DF93823029F49091430198609093B9
:100420004301809347011092480180E48093490181
:1004300080E180934A0180E580934B0180913801EF
:100440000E948C00809139018F3F11F00E948C0036
:1004500080913A010E948C00C4E3D1E09E012453B4
:1004600031408091430184FD0AC084E090E02196F0
:10047000281739073CF48E810E948C00EFCF88E06A
:1004800090E0F5CF8BE39DE00197F1F760E080917C
:1004900038010E94250160E080913A010E94250107
:1004A000809139018F3F19F060E00E942501809111
:1004B000430184FD34C063E084E391E00E947A014B
:1004C000CBE4D6E4CE010197F1F763E084E391E059
:1004D0000E947A012197F1F763E084E391E00E94A2
:1004E0007A0183E592E00197F1F762E084E391E01D
:1004F0000E947A018091430180620E94FA0184E0A7
:10050000809344018CE00E94FA010E94000282E084
:100510008093450186E0DF91CF910C94FA018062CF
:100520000E94FA018BE496E40197F1F78091430170
:1005300080620E94FA0183E592E00197F1F78091D1
:10054000430180620E94FA01D5CFE1E0809147012A
:100550008111E0E0E195F0E0EC5CFE4F8489806879
:100560000C94FA0141E00E94A70181E090E0089517
:100570001F920F920FB60F9211242F933F938F93D8
:100580009F93AF93BF9380912D0190912E01A091E5
:100590002F01B091300130912C0123E0230F2D3732
:1005A00058F50196A11DB11D20932C0180932D01BA
:1005B00090932E01A0932F01B093300180912801D8
:1005C00090912901A0912A01B0912B010196A11DC2
:1005D000B11D8093280190932901A0932A01B09323
:1005E0002B01BF91AF919F918F913F912F910F90D0
:1005F0000FBE0F901F90189526E8230F0296A11D9D
:10060000B11DD2CF789484B5826084BD84B58160F9
:1006100084BD85B5826085BD85B5816085BD8091CD
:100620006E00816080936E00109281008091810045
:10063000826080938100809181008160809381003D
:10064000809180008160809380008091B1008460FF
:100650008093B1008091B00081608093B000809160
:100660007A00846080937A0080917A00826080931F
:100670007A0080917A00816080937A0080917A007C
:10068000806880937A001092C10082E00E94080284
:10069000C0E0D0E011E00E940101892BE9F48091D3
:1006A0003301811119C0809131019091320100977D
:1006B00011F50E9400020E94A5028CE091E00E94C8
:1006C000570180913101909132010196909332014E
:1006D00080933101109333010E940101019731F49D
:1006E00080913301813011F410923301209799F2F7
:1006F0000E940000D0CF8130910539F40E940002A1
:100700000E94A50285E191E0DACF029719F70E94D5
:1007100000020E94A5028EE191E00E945701109212
:10072000320110923101D6CFE4E3F1E0138212825C
:1007300084E091E09183808388E084838FEF8583D8
:1007400087E0868386E0878385E0808784E08187F1
:1007500083E082871386148615861686178681E0C5
:100760000C940802EE0FFF1F0590F491E02D099400
:04077000F894FFCF2B
:1007740000000000B202AB0054015301204D6F642D
:100784006520312000204D6F646520322000204D0B
:080794006F64652033200000B2
:00000001FF
