:100000000C9463000C948B000C948B000C948B006C
:100010000C948B000C948B000C948B000C948B0034
:100020000C948B000C948B000C948B000C948B0024
:100030000C948B000C948B000C948B000C948B0014
:100040000C9470040C948B000C943E040C941804D3
:100050000C948B000C948B000C948B000C948B00F4
:100060000C948B000C948B000000000023002600F1
:10007000290000000008000201000003040700003E
:1000800000000000000000000000250028002B00F8
:1000900000000000240027002A00040404040404D3
:1000A0000404020202020202030303030303010227
:1000B00004081020408001020408102001020408F6
:1000C0001020BA04DA0611241FBECFEFD8E0DEBF3D
:1000D000CDBF21E0A4E3B1E001C01D92AC3FB20767
:1000E000E1F711E0A0E0B1E0EEE3F2E102C005903B
:1000F0000D92A433B107D9F710E0C2E6D0E004C0F6
:100100002197FE010E941A07C136D107C9F70E9444
:100110005C050C9412090C94000090E0FC01E2557F
:10012000FF4F249186569F4FFC018491882399F0BC
:1001300090E0880F991FFC01E057FF4FA591B49103
:10014000FC01EA57FF4F859194918FB7F894EC9199
:10015000E22BEC938FBF08950895AF92BF92CF9298
:10016000DF92EF92FF920F931F93CF93DF936C0177
:100170007B018B01040F151FEB015E01AE18BF0858
:10018000C017D10759F06991D601ED91FC9101900A
:10019000F081E02DC6010995892B79F7C501DF9122
:1001A000CF911F910F91FF90EF90DF90CF90BF9074
:1001B000AF900895FC01538D448D252F30E0842F9E
:1001C00090E0821B930B541710F0CF96089501977F
:1001D0000895FC01918D828D981761F0A28DAE0F6C
:1001E000BF2FB11D5D968C91928D9F5F9F73928FF3
:1001F00090E008958FEF9FEF08952FB7F8948091C6
:10020000390190913A01A0913B01B0913C012FBF7F
:100210008093450190934601A0934701B093480114
:100220008DE391E00E94E90097FF26C02FB7F89474
:100230008091390190913A01A0913B01B0913C012C
:100240002FBF409145015091460160914701709147
:100250004801841B950BA60BB70B409141015091AF
:100260004201609143017091440184179507A607EC
:10027000B707B0F28FEF9FEF0895FC01918D828D4B
:10028000981731F0828DE80FF11D858D90E008956B
:100290008FEF9FEF0895FC01918D228D892F90E0C3
:1002A000805C9F4F821B91098F73992708958DE37E
:1002B00091E00E944B0121E0892B09F420E0822F7C
:1002C000089580E090E0892B29F00E945701811168
:1002D0000C9400000895FC01A48DA80FB92FB11D46
:1002E000A35ABF4F2C91848D90E001968F7399276C
:1002F000848FA689B7892C93A089B1898C9183704A
:1003000080648C93938D848D981306C00288F38942
:10031000E02D80818F7D80830895EF92FF920F936F
:100320001F93CF93DF93EC0181E0888F9B8D8C8DA1
:1003300098131AC0E889F989808185FF15C09FB795
:10034000F894EE89FF896083E889F9898081837058
:10035000806480839FBF81E090E0DF91CF911F9107
:100360000F91FF90EF900895F62E0B8D10E00F5F28
:100370001F4F0F731127E02E8C8D8E110CC00FB6FE
:1003800007FCFACFE889F989808185FFF5CFCE0196
:100390000E946B01F1CFEB8DEC0FFD2FF11DE35AA5
:1003A000FF4FF0829FB7F8940B8FEA89FB89808119
:1003B0008062CFCFCF93DF93EC01888D8823B9F093
:1003C000AA89BB89E889F9898C9185FD03C0808160
:1003D00086FD0DC00FB607FCF7CF8C9185FFF2CFDD
:1003E000808185FFEDCFCE010E946B01E9CFDF91C7
:1003F000CF910895833081F028F4813099F08230D4
:10040000A9F008958730A9F08830C9F08430B1F49C
:10041000809180008F7D03C0809180008F778093D2
:100420008000089584B58F7784BD089584B58F7D4D
:10043000FBCF8091B0008F778093B00008958091BA
:10044000B0008F7DF9CFCF93DF93E4E7F0E08491A4
:10045000E0EBF0E0D491ECE9F0E0C491CC23A1F022
:1004600081110E94FA01EC2FF0E0EE0FFF1FE85916
:10047000FF4FA591B491EC91ED2381E090E009F458
:1004800080E0DF91CF91089580E090E0FACF1F9354
:10049000CF93DF93282F30E0F901EE58FF4F84917E
:1004A000F901E255FF4FD491F901E656FF4FC4918F
:1004B000CC23A9F0162F81110E94FA01EC2FF0E055
:1004C000EE0FFF1FEA57FF4FA591B4918FB7F89435
:1004D000EC91111108C0D095DE23DC938FBFDF9122
:1004E000CF911F910895DE2BF8CF3FB7F8948091FC
:1004F000350190913601A0913701B091380126B5B0
:10050000A89B05C02F3F19F00196A11DB11D3FBF4B
:10051000BA2FA92F982F8827BC01CD01620F711D1A
:10052000811D911D42E0660F771F881F991F4A9514
:10053000D1F7089590E080E00895CF93DF93EC0128
:1005400060E08E810E94470261E08E810E94470236
:1005500060E08E810E9447028BE891E00197F1F7FD
:10056000DF91CF910895CF92DF92EF92FF920F9398
:100570001F93CF93DF936C017C0187E0E80EF11CA1
:10058000D0E0C0E0062F10E0B8010C2E02C0759537
:1005900067950A94E2F76170F70181917F010E94EB
:1005A00047022196C430D10579F7C601DF91CF917A
:1005B0001F910F91FF90EF90DF90CF900C949D02D0
:1005C000CF92DF92EF92FF920F931F93CF93DF931F
:1005D000EC01F62E642F8C810E9447028D818F3FA3
:1005E00019F060E00E9447020F2D10E08F8584FF14
:1005F00025C06E0187E0C80ED11CF12CE12CB8019A
:100600000E2C02C0759567950A94E2F76170F601A9
:1006100081916F010E944702FFEFEF1AFF0A88E005
:10062000E816F10461F7CE01DF91CF911F910F9190
:10063000FF90EF90DF90CF900C949D02B80184E082
:10064000759567958A95E1F7CE010E94B3026F2DEB
:10065000CE01DF91CF911F910F91FF90EF90DF902E
:10066000CF900C94B302CF93DF93823029F4909112
:10067000EF0198609093EF018093F3011092F401E1
:1006800080E48093F50180E18093F60180E580931A
:10069000F7018091E4010E948D008091E5018F3F78
:1006A00011F00E948D008091E6010E948D00C0EE45
:1006B000D1E09E01205E31408091EF0184FD0AC0AF
:1006C00084E090E02196281739073CF48E810E943F
:1006D0008D00EFCF88E090E0F5CF8BE39DE00197B0
:1006E000F1F760E08091E4010E94470260E08091B0
:1006F000E6010E9447028091E5018F3F19F060E01A
:100700000E9447026091EF0164FD45C063E080EE06
:1007100091E00E94B302CBE4D6E4CE010197F1F759
:1007200063E080EE91E00E94B3022197F1F763E06D
:1007300080EE91E00E94B30283E592E00197F1F729
:1007400062E080EE91E00E94B3026091EF0160628E
:1007500040E080EE91E00E94E00284E08093F001AE
:1007600040E06CE080EE91E00E94E00240E061E059
:1007700080EE91E00E94E0028BE39FE10197F1F7A8
:1007800082E08093F10140E066E080EE91E0DF914D
:10079000CF910C94E002606240E080EE91E00E9414
:1007A000E0028BE496E40197F1F76091EF0160625B
:1007B00040E080EE91E00E94E00283E592E0019744
:1007C000F1F76091EF01606240E080EE91E00E94FD
:1007D000E002BBCF41E00E94E00281E090E008959A
:1007E0000F931F93CF93DF93EC018881998100973A
:1007F00059F02A813B812617370730F081E0DF91DD
:10080000CF911F910F9108958B016F5F7F4F0E94D1
:100810004508009759F0998388831B830A832C81AC
:100820003D81232B59F7FC011082E8CF80E0E7CF10
:100830001F920F920FB60F9211242F933F934F9355
:100840005F936F937F938F939F93AF93BF93EF9338
:10085000FF938DE391E00E946B01FF91EF91BF91B7
:10086000AF919F918F917F916F915F914F913F9148
:100870002F910F900FBE0F901F9018951F920F92FF
:100880000FB60F9211242F938F939F93EF93FF93A3
:10089000E0914D01F0914E018081E0915301F09182
:1008A000540182FD1BC09081809156018F5F8F7330
:1008B00020915701821741F0E0915601F0E0E35C8E
:1008C000FE4F958F80935601FF91EF919F918F91ED
:1008D0002F910F900FBE0F901F9018958081F4CF2D
:1008E0001F920F920FB60F9211242F933F938F9365
:1008F0009F93AF93BF938091390190913A01A0915A
:100900003B01B0913C013091340123E0230F2D379E
:1009100058F50196A11DB11D209334018093390132
:1009200090933A01A0933B01B0933C018091350133
:1009300090913601A0913701B09138010196A11D27
:10094000B11D8093350190933601A0933701B09388
:100950003801BF91AF919F918F913F912F910F904F
:100960000FBE0F901F90189526E8230F0296A11D29
:10097000B11DD2CF1092400110923F0188EE93E05A
:10098000A0E0B0E08093410190934201A093430125
:10099000B09344018BE091E090933E0180933D0140
:1009A00085EC90E090934A018093490184EC90E0BB
:1009B00090934C0180934B0180EC90E090934E011A
:1009C00080934D0181EC90E09093500180934F0112
:1009D00082EC90E0909352018093510186EC90E07C
:1009E0009093540180935301109256011092570135
:1009F00010925801109259011092E3011092E201F5
:100A00008DE191E09093E1018093E0018CE080938F
:100A1000E4018FEF8093E5018BE08093E6018AE0AB
:100A20008093E70189E08093E80188E08093E90101
:100A300087E08093EA011092EB011092EC01109292
:100A4000ED011092EE011092EF0181E00E9433035C
:100A50001092DB011092DA011092DD011092DC019C
:100A60001092DF011092DE0170E060E08AED91E00B
:100A70000E94F0032091DA013091DB01811113C053
:100A80002115310519F0C9010E94BC071092DB0144
:100A90001092DA011092DF011092DE011092DD0156
:100AA0001092DC0108951092DF011092DE0163E3E1
:100AB00071E0C9010C940B09CF93DF93CDB7DEB77A
:100AC00028970FB6F894DEBF0FBECDBF789484B5DB
:100AD000826084BD84B5816084BD85B5826085BD3A
:100AE00085B5816085BD80916E00816080936E00C8
:100AF00010928100809181008260809381008091BA
:100B0000810081608093810080918000816080936A
:100B100080008091B10084608093B1008091B0002A
:100B200081608093B00080917A00846080937A0025
:100B300080917A00826080937A0080917A0081604F
:100B400080937A0080917A00806880937A00109276
:100B5000C10082E00E943303E0914D01F0914E010B
:100B600082E08083E0914901F0914A011082E09196
:100B70004B01F0914C018FEC808310925501E09174
:100B80005101F091520186E08083E0914F01F09194
:100B90005001808180618083E0914F01F09150018C
:100BA000808188608083E0914F01F09150018081C5
:100BB00080688083E0914F01F091500180818F7DAA
:100BC000808382E00E948D0061E082E00E94470203
:100BD0009BE3C92E9FE1D92E20E0E22E20E0F22EE9
:100BE000332433940E942302892B91F580910001D4
:100BF00081112EC04EE050E065E271E08DE391E09E
:100C00000E94AD000E9475024B015C0183E2482EF8
:100C1000512C612C712C0E947502681979098A097E
:100C20009B09683E734081059105A8F321E0421AB3
:100C300051086108710888EE880E83E0981EA11C97
:100C4000B11C411451046104710429F73092000170
:100C50000E942302019731F480910001813011F448
:100C6000109200018DE391E00E944B01892B09F461
:100C70007CC040E061E080EE91E00E94E002C601AD
:100C80000197F1F71A8219821C821B821E821D8233
:100C900070E060E0CE0101960E94F00329813A8164
:100CA00081112BC02115310519F0C9010E94BC0723
:100CB0001A8219821E821D821C821B820E94FD00E4
:100CC00097FD23C08F8318860D811E810F5F1F4FF4
:100CD000B801CE0101960E94F003882379F329819F
:100CE0003A818D819E81BE01695F7F4F820F931F84
:100CF0000E940B091E830D83E1CF1E821D8263E3D8
:100D000071E0C9010E940B09D9CF8091DA0190915D
:100D1000DB010097C1F169817A816115710589F163
:100D20004091DC015091DD012D813E814217530736
:100D300040F10E940B098D819E819093DF01809389
:100D4000DE011E821D8289819A81009711F00E9426
:100D5000BC074091DE015091DF016091DA01709192
:100D6000DB0180EE91E00E94AD00E114F10409F492
:100D700039CF0E945701882309F434CF0E94000024
:100D800031CF0E94BC0789819A819093DB018093C7
:100D9000DA018B819C819093DD018093DC018D8150
:100DA0009E819093DF018093DE011A8219821C825A
:100DB0001B82C7CF8091DA019091DB01009711F07F
:100DC0000C94BC0708952F923F924F925F926F92BE
:100DD0007F928F929F92AF92BF92CF92DF92EF92CB
:100DE000FF920F931F93CF93DF93CDB7DEB7CA1B4C
:100DF000DB0B0FB6F894DEBF0FBECDBF09942A8877
:100E0000398848885F846E847D848C849B84AA841E
:100E1000B984C884DF80EE80FD800C811B81AA81AB
:100E2000B981CE0FD11D0FB6F894DEBF0FBECDBF76
:100E3000ED010895EE0FFF1F0590F491E02D099448
:100E40000F931F93CF93DF938230910510F482E0CC
:100E500090E0E091FA01F091FB0130E020E0B0E099
:100E6000A0E0309799F42115310509F44AC0281BF8
:100E7000390B24303105D8F58A819B8161157105C4
:100E800089F1FB0193838283FE0111C0408151816E
:100E90000281138148175907E0F04817590799F460
:100EA000109761F012960C93129713961C9332963A
:100EB000CF01DF91CF911F910F9108950093FA0117
:100EC0001093FB01F4CF2115310551F04217530760
:100ED00038F0A901DB019A01BD01DF01F801C1CFA2
:100EE000EF01F9CF9093FB018093FA01CDCFFE0182
:100EF000E20FF31F819391932250310939832883A4
:100F0000D7CF2091F8013091F901232B41F42091A2
:100F10000301309104013093F9012093F8012091ED
:100F20000101309102012115310541F42DB73EB781
:100F30004091050150910601241B350BE091F80109
:100F4000F091F901E217F307A0F42E1B3F0B2817CD
:100F5000390778F0AC014E5F5F4F2417350748F032
:100F60004E0F5F1F5093F9014093F80181939193C5
:100F70009FCFF0E0E0E09CCFCF93DF930097E9F0C4
:100F8000FC01329713821282A091FA01B091FB0109
:100F9000ED0130E020E01097A1F420813181820F33
:100FA000931F2091F8013091F9012817390709F0B2
:100FB00061C0F093F901E093F801DF91CF910895BA
:100FC000EA01CE17DF07E8F54A815B819E014115F2
:100FD0005105B1F7E901FB83EA8349915991C40FA7
:100FE000D51FEC17FD0761F4808191810296840F73
:100FF000951FE90199838883828193819B838A83EA
:10100000F0E0E0E012968D919C9113970097B9F56E
:101010002D913C911197CD010296820F931F209143
:10102000F8013091F9012817390739F6309751F551
:101030001092FB011092FA01B093F901A093F8010C
:10104000BCCFD383C28340815181840F951FC817C1
:10105000D90761F44E5F5F4F88819981480F591F0E
:10106000518340838A819B8193838283211531053B
:1010700009F0B0CFF093FB01E093FA019ECFFD01A0
:10108000DC01C0CF13821282D7CFB0E0A0E0EBE446
:10109000F8E00C94E5068C01009751F4CB010E9416
:1010A00020078C01C801CDB7DEB7E0E10C94010741
:1010B000FC01E60FF71F9C0122503109E217F307EC
:1010C00008F49DC0D901CD91DC911197C617D707BF
:1010D00098F0C530D10530F3CE01049786179707F5
:1010E00008F3C61BD70B2297C193D1936D937C93C2
:1010F000CF010E94BC07D6CF5B01AC1ABD0A4C01E0
:101100008C0E9D1EA091FA01B091FB01512C412C37
:10111000F12CE12C109731F58091F8019091F901B3
:101120008815990509F05CC04616570608F058C0A6
:101130008091010190910201009741F48DB79EB713
:101140004091050150910601841B950BE817F907A2
:1011500008F055C0F093F901E093F801F9017183AB
:101160006083A0CF8D919C91119712966C901297ED
:1011700013967C901397A815B90559F56C0142E0B8
:10118000C40ED11CCA14DB0420F1AC014A195B095E
:10119000DA011296159780F0628273825183408340
:1011A000D9016D937C93E114F10471F0D70113968A
:1011B000FC93EE93129776CF22968C0F9D1FF90128
:1011C00091838083F301EFCFF093FB01E093FA0169
:1011D00069CF4816590608F42C017D01D3019ACF36
:1011E000CB010E9420077C01009749F0AE01B801B5
:1011F0000E940209C8010E94BC07870153CF10E07A
:1012000000E050CFFB01DC0102C001900D92415083
:101210005040D8F70895FB01DC0101900D920020A9
:10122000E1F7089510E0C2E6D0E004C0FE010E949C
:0E1230001A072196C336D107C9F7F894FFCFED
:10123E00010000FC018000000000008D01AD00DA0D
:10124E0000DA014B01E9003D0100000000EA03ADA8
:10125E00009A02AC00537072617661206F64206157
:04126E007264320074
:00000001FF
