:100000000C945D000C9485000C9485000C94850084
:100010000C9485000C9485000C9485000C9485004C
:100020000C9485000C9485000C9485000C9485003C
:100030000C9485000C9485000C9485000C9485002C
:100040000C94E7020C9485000C9485000C948500B8
:100050000C9485000C9485000C9485000C9485000C
:100060000C9485000C94850000000008000201003B
:100070000003040700000000000000000000000072
:10008000250028002B0000000000240027002A0083
:10009000040404040404040402020202020203032E
:1000A0000303030301020408102040800102040836
:1000B00010200102040810205B0411241FBECFEFA2
:1000C000D8E0DEBFCDBF11E0A0E0B1E0E2ECF9E0A6
:1000D00002C005900D92AC32B107D9F721E0ACE235
:1000E000B1E001C01D92A035B207E1F710E0CDE507
:1000F000D0E004C02197FE010E94D404CC35D10782
:10010000C9F70E9431030C94DF040C94000090E0C6
:10011000FC01EC55FF4F2491FC01E057FF4F849107
:10012000882399F090E0880F991FFC01EA57FF4F50
:10013000A591B491FC01E458FF4F859194918FB73C
:10014000F894EC91E22BEC938FBF089590E0FC01C2
:10015000E859FF4F2491FC01EC55FF4F3491FC010D
:10016000E057FF4FE491EE2309F43CC0222339F11C
:10017000233091F038F42130A9F0223001F584B514
:100180008F7D12C0273091F02830A1F02430B9F4CF
:10019000809180008F7D03C0809180008F77809355
:1001A00080000DC084B58F7784BD09C08091B000F8
:1001B0008F7703C08091B0008F7D8093B000F0E016
:1001C000EE0FFF1FE458FF4FA591B4919FB7F8942D
:1001D000611104C08C913095382302C0EC913E2B04
:1001E0003C939FBF08953FB7F8948091340190915C
:1001F0003501A0913601B091370126B5A89B05C005
:100200002F3F19F00196A11DB11D3FBFBA2FA92F95
:10021000982F8827820F911DA11DB11DBC01CD0112
:1002200042E0660F771F881F991F4A95D1F70895FE
:100230008F929F92AF92BF92CF92DF92EF92FF92F6
:100240000E94F3004B015C018AE0C82ED12CE12C06
:10025000F12C0E94F300DC01CB0188199909AA094D
:10026000BB09883E9340A105B10598F321E0C21A6D
:10027000D108E108F10888EE880E83E0981EA11CE1
:10028000B11CC114D104E104F10419F7FF90EF90FF
:10029000DF90CF90BF90AF909F908F900895CF92B6
:1002A000DF92EF92FF920F931F93CF93DF936C0136
:1002B0007A018B01C0E0D0E0CE15DF0581F0D801D6
:1002C0006D918D01D601ED91FC910190F081E02DB1
:1002D000C6010995892B11F02196EECF7E01C70149
:1002E000DF91CF911F910F91FF90EF90DF90CF9012
:1002F0000895CF93DF93EC0160E08E810E94A60009
:1003000061E08E810E94A60060E08E810E94A600BE
:100310008BE891E00197F1F7DF91CF910895CF92AB
:10032000DF92EF92FF920F931F93CF93DF936C01B5
:100330007C0187E0E80EF11CC0E0D0E0062F10E061
:10034000B8010C2E02C0759567950A94E2F76170AA
:10035000F70181917F010E94A6002196C430D1054A
:1003600079F7C601DF91CF911F910F91FF90EF9028
:10037000DF90CF900C947901CF92DF92EF92FF92B1
:100380000F931F93CF93DF93EC01F62E642F8C8194
:100390000E94A6008D818F3F19F060E00E94A600A8
:1003A0008F850F2D10E084FF25C06E0187E0C80EF9
:1003B000D11CE12CF12CB8010E2C02C0759567956B
:1003C0000A94E2F76170F60181916F010E94A60024
:1003D000FFEFEF1AFF0A88E0E816F10461F7CE019B
:1003E000DF91CF911F910F91FF90EF90DF90CF9011
:1003F0000C947901B80184E0759567958A95E1F7C9
:10040000CE010E948F016F2DCE01DF91CF911F9100
:100410000F91FF90EF90DF90CF900C948F0140E010
:1004200061E088E391E00E94BC018BE39FE10197CA
:10043000F1F70895CF93DF93823028F09091470130
:1004400098609093470180934B0110924C0180E497
:1004500080934D0180E180934E0180E580934F01B0
:1004600080913C010E94870080913D018F3F11F0F7
:100470000E94870080913E010E948700C8E3D1E07E
:100480009E01285331408091470184FD03C084E0E0
:1004900090E002C088E090E021962817390724F404
:1004A0008E810E948700ECCF8BE39DE00197F1F7EE
:1004B00060E080913C010E94A60060E080913E01D6
:1004C0000E94A60080913D018F3F19F060E00E94DC
:1004D000A6006091470164FD20C063E088E391E0DD
:1004E0000E948F01CBE4D6E4CE010197F1F763E0DF
:1004F00088E391E00E948F012197F1F763E088E3A0
:1005000091E00E948F0183E592E00197F1F762E0AC
:1005100088E391E00E948F011EC0606240E088E3A2
:1005200091E00E94BC018BE496E40197F1F76091A1
:100530004701606240E088E391E00E94BC0183E5EE
:1005400092E00197F1F760914701606240E088E333
:1005500091E00E94BC0160914701606240E088E345
:1005600091E00E94BC0184E08093480140E06CE08F
:1005700088E391E00E94BC010E940F0282E0809318
:10058000490140E066E088E391E0DF91CF910C946F
:10059000BC0141E00E94BC0181E090E00895089513
:1005A00080E090E00895009769F0FC010190002040
:1005B000E9F73197AF01481B590BBC0188E391E083
:1005C0000C944F0180E090E008950E94DA041F929D
:1005D0000F920FB60F9211242F933F938F939F93F7
:1005E000AF93BF938091300190913101A09132017E
:1005F000B091330130912F0123E0230F2D3720F4E8
:100600000196A11DB11D05C026E8230F0296A11D6C
:10061000B11D20932F018093300190933101A0935D
:100620003201B09333018091340190913501A09152
:100630003601B09137010196A11DB11D809334019F
:1006400090933501A0933601B0933701BF91AF91DC
:100650009F918F913F912F910F900FBE0F901F9000
:100660001895CF93DF93CDB7DEB7A1970FB6F89467
:10067000DEBF0FBECDBF789484B5826084BD84B5E3
:10068000816084BD85B5826085BD85B5816085BD8D
:1006900080916E00816080936E0010928100809145
:1006A00081008260809381008091810081608093CD
:1006B0008100809180008160809380008091B100F2
:1006C00084608093B1008091B00081608093B0001D
:1006D00080917A00846080937A0080917A008260B1
:1006E00080937A0080917A00816080937A00809173
:1006F0007A00806880937A001092C10080917C001B
:100700008F7780937C0080917C008F7B80937C002E
:1007100080917C008F7D80937C0080917C00816043
:1007200080937C0080917C008D7F80937C00809101
:100730007C008B7F80937C0080917C00877F8093FE
:100740007C0080917A00806880937A0080917A00A2
:100750008F7D80937A0080917A00877F80937A00E2
:1007600080917A00846080937A0080917A00826020
:1007700080937A0080917A00816080937A0082E091
:100780000E941A0244244A9483E0582E612C712C52
:100790009AE0C92ED12CE12CF12C20E0222E20E071
:1007A000322E96B180912E01892781FF7AC08091E7
:1007B0007A00806480937A0080917A0084FFFCCF75
:1007C000A0917800B0E0B0932D01A0932C0180910E
:1007D0007900B82B24E630E00E94CD04A3019201F9
:1007E0000E947D04C90130932D0120932C01892B97
:1007F00029F40E940F028CE091E04FC024363105AD
:1008000029F40E940F0287E191E047C00E940F0285
:1008100083E291E00E94D30220912C0130912D01BE
:100820004901330FAA08BB08B7FE21C041E06DE2C1
:1008300088E391E00E94BC0122273327A9012819EF
:1008400039094A095B0919A28E010F5D1F4FCA01C0
:10085000B901A70196010E949C04605DF8016293B2
:100860008F01211531054105510589F715C0A501F5
:10087000940119A28E010F5D1F4FCA01B901A70192
:1008800096010E949C04605DF80162938F0121151E
:1008900031054105510589F7C8010E94D3020E9424
:1008A000180186B180932E012114310409F479CF07
:1008B0000E94000076CFE8E3F1E01382128284E028
:1008C00091E09183808388E084838FEF858389E042
:1008D00086838AE087838BE080878CE081878DE048
:1008E00082871386148615861686178681E00E94F5
:1008F0001A0286B180932E010895052E97FB1EF4EF
:1009000000940E94940457FD07D00E949C0407FCA9
:1009100003D04EF40C949404509540953095219555
:100920003F4F4F4F5F4F089590958095709561951B
:100930007F4F8F4F9F4F0895A1E21A2EAA1BBB1B1A
:10094000FD010DC0AA1FBB1FEE1FFF1FA217B3079B
:10095000E407F50720F0A21BB30BE40BF50B661FB1
:10096000771F881F991F1A9469F760957095809575
:1009700090959B01AC01BD01CF010895A29FB001EC
:10098000B39FC001A39F700D811D1124911DB29FC3
:10099000700D811D1124911D08950E94BE04B7FFA2
:1009A0000895821B930B0895EE0FFF1F0590F4919D
:1009B000E02D099481E090E0F8940C94DF04F89421
:0209C000FFCF67
:1009C20000000000C9024F01D002CF02564F4C5521
:1009D2004D45204D415800564F4C554D45204D55E3
:0C09E200544500564F4C554D4520000078
:107E0000112484B714BE81FFF0D085E080938100F7
:107E100082E08093C00088E18093C10086E0809377
:107E2000C20080E18093C4008EE0C9D0259A86E02C
:107E300020E33CEF91E0309385002093840096BBD3
:107E4000B09BFECF1D9AA8958150A9F7CC24DD24C4
:107E500088248394B5E0AB2EA1E19A2EF3E0BF2EE7
:107E6000A2D0813461F49FD0082FAFD0023811F036
:107E7000013811F484E001C083E08DD089C08234E0
:107E800011F484E103C0853419F485E0A6D080C0E4
:107E9000853579F488D0E82EFF2485D0082F10E0AE
:107EA000102F00270E291F29000F111F8ED06801E7
:107EB0006FC0863521F484E090D080E0DECF843638
:107EC00009F040C070D06FD0082F6DD080E0C81688
:107ED00080E7D80618F4F601B7BEE895C0E0D1E017
:107EE00062D089930C17E1F7F0E0CF16F0E7DF06D8
:107EF00018F0F601B7BEE89568D007B600FCFDCFD4
:107F0000A601A0E0B1E02C9130E011968C91119780
:107F100090E0982F8827822B932B1296FA010C0160
:107F200087BEE89511244E5F5F4FF1E0A038BF0790
:107F300051F7F601A7BEE89507B600FCFDCF97BE46
:107F4000E89526C08437B1F42ED02DD0F82E2BD052
:107F50003CD0F601EF2C8F010F5F1F4F84911BD097
:107F6000EA94F801C1F70894C11CD11CFA94CF0C13
:107F7000D11C0EC0853739F428D08EE10CD085E9AC
:107F80000AD08FE07ACF813511F488E018D01DD067
:107F900080E101D065CF982F8091C00085FFFCCF94
:107FA0009093C60008958091C00087FFFCCF809118
:107FB000C00084FD01C0A8958091C6000895E0E648
:107FC000F0E098E1908380830895EDDF803219F02E
:107FD00088E0F5DFFFCF84E1DECF1F93182FE3DFCA
:107FE0001150E9F7F2DF1F91089580E0E8DFEE27F6
:047FF000FF270994CA
:027FFE00040479
:0400000300007E007B
:00000001FF
